{
  "_format": "hh-sol-artifact-1",
  "contractName": "TestNFT",
  "sourceName": "contracts/TestNFT.sol",
  "abi": [
    {
      "inputs": [
        {
          "internalType": "string",
          "name": "name",
          "type": "string"
        },
        {
          "internalType": "string",
          "name": "symbol",
          "type": "string"
        }
      ],
      "stateMutability": "nonpayable",
      "type": "constructor"
    },
    {
      "anonymous": false,
      "inputs": [
        {
          "indexed": true,
          "internalType": "address",
          "name": "owner",
          "type": "address"
        },
        {
          "indexed": true,
          "internalType": "address",
          "name": "approved",
          "type": "address"
        },
        {
          "indexed": true,
          "internalType": "uint256",
          "name": "tokenId",
          "type": "uint256"
        }
      ],
      "name": "Approval",
      "type": "event"
    },
    {
      "anonymous": false,
      "inputs": [
        {
          "indexed": true,
          "internalType": "address",
          "name": "owner",
          "type": "address"
        },
        {
          "indexed": true,
          "internalType": "address",
          "name": "operator",
          "type": "address"
        },
        {
          "indexed": false,
          "internalType": "bool",
          "name": "approved",
          "type": "bool"
        }
      ],
      "name": "ApprovalForAll",
      "type": "event"
    },
    {
      "anonymous": false,
      "inputs": [
        {
          "indexed": true,
          "internalType": "address",
          "name": "previousOwner",
          "type": "address"
        },
        {
          "indexed": true,
          "internalType": "address",
          "name": "newOwner",
          "type": "address"
        }
      ],
      "name": "OwnershipTransferred",
      "type": "event"
    },
    {
      "anonymous": false,
      "inputs": [
        {
          "indexed": true,
          "internalType": "address",
          "name": "from",
          "type": "address"
        },
        {
          "indexed": true,
          "internalType": "address",
          "name": "to",
          "type": "address"
        },
        {
          "indexed": true,
          "internalType": "uint256",
          "name": "tokenId",
          "type": "uint256"
        }
      ],
      "name": "Transfer",
      "type": "event"
    },
    {
      "inputs": [
        {
          "internalType": "address",
          "name": "to",
          "type": "address"
        },
        {
          "internalType": "uint256",
          "name": "tokenId",
          "type": "uint256"
        }
      ],
      "name": "approve",
      "outputs": [],
      "stateMutability": "nonpayable",
      "type": "function"
    },
    {
      "inputs": [
        {
          "internalType": "address",
          "name": "owner",
          "type": "address"
        }
      ],
      "name": "balanceOf",
      "outputs": [
        {
          "internalType": "uint256",
          "name": "",
          "type": "uint256"
        }
      ],
      "stateMutability": "view",
      "type": "function"
    },
    {
      "inputs": [
        {
          "internalType": "address",
          "name": "",
          "type": "address"
        }
      ],
      "name": "balances",
      "outputs": [
        {
          "internalType": "uint256",
          "name": "",
          "type": "uint256"
        }
      ],
      "stateMutability": "view",
      "type": "function"
    },
    {
      "inputs": [
        {
          "internalType": "uint256",
          "name": "tokenId",
          "type": "uint256"
        }
      ],
      "name": "getApproved",
      "outputs": [
        {
          "internalType": "address",
          "name": "",
          "type": "address"
        }
      ],
      "stateMutability": "view",
      "type": "function"
    },
    {
      "inputs": [
        {
          "internalType": "address",
          "name": "owner",
          "type": "address"
        },
        {
          "internalType": "address",
          "name": "operator",
          "type": "address"
        }
      ],
      "name": "isApprovedForAll",
      "outputs": [
        {
          "internalType": "bool",
          "name": "",
          "type": "bool"
        }
      ],
      "stateMutability": "view",
      "type": "function"
    },
    {
      "inputs": [],
      "name": "name",
      "outputs": [
        {
          "internalType": "string",
          "name": "",
          "type": "string"
        }
      ],
      "stateMutability": "view",
      "type": "function"
    },
    {
      "inputs": [],
      "name": "owner",
      "outputs": [
        {
          "internalType": "address",
          "name": "",
          "type": "address"
        }
      ],
      "stateMutability": "view",
      "type": "function"
    },
    {
      "inputs": [
        {
          "internalType": "uint256",
          "name": "tokenId",
          "type": "uint256"
        }
      ],
      "name": "ownerOf",
      "outputs": [
        {
          "internalType": "address",
          "name": "",
          "type": "address"
        }
      ],
      "stateMutability": "view",
      "type": "function"
    },
    {
      "inputs": [],
      "name": "renounceOwnership",
      "outputs": [],
      "stateMutability": "nonpayable",
      "type": "function"
    },
    {
      "inputs": [
        {
          "internalType": "address",
          "name": "from",
          "type": "address"
        },
        {
          "internalType": "address",
          "name": "to",
          "type": "address"
        },
        {
          "internalType": "uint256",
          "name": "tokenId",
          "type": "uint256"
        }
      ],
      "name": "safeTransferFrom",
      "outputs": [],
      "stateMutability": "nonpayable",
      "type": "function"
    },
    {
      "inputs": [
        {
          "internalType": "address",
          "name": "from",
          "type": "address"
        },
        {
          "internalType": "address",
          "name": "to",
          "type": "address"
        },
        {
          "internalType": "uint256",
          "name": "tokenId",
          "type": "uint256"
        },
        {
          "internalType": "bytes",
          "name": "data",
          "type": "bytes"
        }
      ],
      "name": "safeTransferFrom",
      "outputs": [],
      "stateMutability": "nonpayable",
      "type": "function"
    },
    {
      "inputs": [
        {
          "internalType": "address",
          "name": "operator",
          "type": "address"
        },
        {
          "internalType": "bool",
          "name": "approved",
          "type": "bool"
        }
      ],
      "name": "setApprovalForAll",
      "outputs": [],
      "stateMutability": "nonpayable",
      "type": "function"
    },
    {
      "inputs": [
        {
          "internalType": "bytes4",
          "name": "interfaceId",
          "type": "bytes4"
        }
      ],
      "name": "supportsInterface",
      "outputs": [
        {
          "internalType": "bool",
          "name": "",
          "type": "bool"
        }
      ],
      "stateMutability": "view",
      "type": "function"
    },
    {
      "inputs": [],
      "name": "symbol",
      "outputs": [
        {
          "internalType": "string",
          "name": "",
          "type": "string"
        }
      ],
      "stateMutability": "view",
      "type": "function"
    },
    {
      "inputs": [
        {
          "internalType": "uint256",
          "name": "numberOfTests",
          "type": "uint256"
        }
      ],
      "name": "test",
      "outputs": [],
      "stateMutability": "payable",
      "type": "function"
    },
    {
      "inputs": [
        {
          "internalType": "uint256",
          "name": "index",
          "type": "uint256"
        }
      ],
      "name": "tokenByIndex",
      "outputs": [
        {
          "internalType": "uint256",
          "name": "",
          "type": "uint256"
        }
      ],
      "stateMutability": "view",
      "type": "function"
    },
    {
      "inputs": [
        {
          "internalType": "address",
          "name": "owner",
          "type": "address"
        },
        {
          "internalType": "uint256",
          "name": "index",
          "type": "uint256"
        }
      ],
      "name": "tokenOfOwnerByIndex",
      "outputs": [
        {
          "internalType": "uint256",
          "name": "",
          "type": "uint256"
        }
      ],
      "stateMutability": "view",
      "type": "function"
    },
    {
      "inputs": [
        {
          "internalType": "uint256",
          "name": "tokenId",
          "type": "uint256"
        }
      ],
      "name": "tokenURI",
      "outputs": [
        {
          "internalType": "string",
          "name": "",
          "type": "string"
        }
      ],
      "stateMutability": "view",
      "type": "function"
    },
    {
      "inputs": [],
      "name": "totalSupply",
      "outputs": [
        {
          "internalType": "uint256",
          "name": "",
          "type": "uint256"
        }
      ],
      "stateMutability": "view",
      "type": "function"
    },
    {
      "inputs": [
        {
          "internalType": "address",
          "name": "from",
          "type": "address"
        },
        {
          "internalType": "address",
          "name": "to",
          "type": "address"
        },
        {
          "internalType": "uint256",
          "name": "tokenId",
          "type": "uint256"
        }
      ],
      "name": "transferFrom",
      "outputs": [],
      "stateMutability": "nonpayable",
      "type": "function"
    },
    {
      "inputs": [
        {
          "internalType": "address",
          "name": "newOwner",
          "type": "address"
        }
      ],
      "name": "transferOwnership",
      "outputs": [],
      "stateMutability": "nonpayable",
      "type": "function"
    }
  ],
  "bytecode": "0x60806040523480156200001157600080fd5b50604051620036a7380380620036a7833981810160405281019062000037919062000285565b818181600090805190602001906200005192919062000163565b5080600190805190602001906200006a92919062000163565b5050506200008d620000816200009560201b60201c565b6200009d60201b60201c565b505062000468565b600033905090565b6000600a60009054906101000a900473ffffffffffffffffffffffffffffffffffffffff16905081600a60006101000a81548173ffffffffffffffffffffffffffffffffffffffff021916908373ffffffffffffffffffffffffffffffffffffffff1602179055508173ffffffffffffffffffffffffffffffffffffffff168173ffffffffffffffffffffffffffffffffffffffff167f8be0079c531659141344cd1fd0a4f28419497f9722a3daafe3b4186f6b6457e060405160405180910390a35050565b82805462000171906200038d565b90600052602060002090601f016020900481019282620001955760008555620001e1565b82601f10620001b057805160ff1916838001178555620001e1565b82800160010185558215620001e1579182015b82811115620001e0578251825591602001919060010190620001c3565b5b509050620001f09190620001f4565b5090565b5b808211156200020f576000816000905550600101620001f5565b5090565b60006200022a620002248462000321565b620002f8565b9050828152602081018484840111156200024357600080fd5b6200025084828562000357565b509392505050565b600082601f8301126200026a57600080fd5b81516200027c84826020860162000213565b91505092915050565b600080604083850312156200029957600080fd5b600083015167ffffffffffffffff811115620002b457600080fd5b620002c28582860162000258565b925050602083015167ffffffffffffffff811115620002e057600080fd5b620002ee8582860162000258565b9150509250929050565b60006200030462000317565b9050620003128282620003c3565b919050565b6000604051905090565b600067ffffffffffffffff8211156200033f576200033e62000428565b5b6200034a8262000457565b9050602081019050919050565b60005b83811015620003775780820151818401526020810190506200035a565b8381111562000387576000848401525b50505050565b60006002820490506001821680620003a657607f821691505b60208210811415620003bd57620003bc620003f9565b5b50919050565b620003ce8262000457565b810181811067ffffffffffffffff82111715620003f057620003ef62000428565b5b80604052505050565b7f4e487b7100000000000000000000000000000000000000000000000000000000600052602260045260246000fd5b7f4e487b7100000000000000000000000000000000000000000000000000000000600052604160045260246000fd5b6000601f19601f8301169050919050565b61322f80620004786000396000f3fe60806040526004361061012a5760003560e01c80634f6ccce7116100ab57806395d89b411161006f57806395d89b4114610409578063a22cb46514610434578063b88d4fde1461045d578063c87b56dd14610486578063e985e9c5146104c3578063f2fde38b146105005761012a565b80634f6ccce7146103105780636352211e1461034d57806370a082311461038a578063715018a6146103c75780638da5cb5b146103de5761012a565b806323b872dd116100f257806323b872dd1461022857806327e235e31461025157806329e99f071461028e5780632f745c59146102aa57806342842e0e146102e75761012a565b806301ffc9a71461012f57806306fdde031461016c578063081812fc14610197578063095ea7b3146101d457806318160ddd146101fd575b600080fd5b34801561013b57600080fd5b50610156600480360381019061015191906123eb565b610529565b60405161016391906127ce565b60405180910390f35b34801561017857600080fd5b506101816105a3565b60405161018e91906127e9565b60405180910390f35b3480156101a357600080fd5b506101be60048036038101906101b9919061243d565b610635565b6040516101cb9190612767565b60405180910390f35b3480156101e057600080fd5b506101fb60048036038101906101f691906123af565b61067b565b005b34801561020957600080fd5b50610212610793565b60405161021f91906129eb565b60405180910390f35b34801561023457600080fd5b5061024f600480360381019061024a91906122a9565b6107a0565b005b34801561025d57600080fd5b5061027860048036038101906102739190612244565b610800565b60405161028591906129eb565b60405180910390f35b6102a860048036038101906102a3919061243d565b610818565b005b3480156102b657600080fd5b506102d160048036038101906102cc91906123af565b6108b1565b6040516102de91906129eb565b60405180910390f35b3480156102f357600080fd5b5061030e600480360381019061030991906122a9565b610956565b005b34801561031c57600080fd5b506103376004803603810190610332919061243d565b610976565b60405161034491906129eb565b60405180910390f35b34801561035957600080fd5b50610374600480360381019061036f919061243d565b610a0d565b6040516103819190612767565b60405180910390f35b34801561039657600080fd5b506103b160048036038101906103ac9190612244565b610abf565b6040516103be91906129eb565b60405180910390f35b3480156103d357600080fd5b506103dc610b77565b005b3480156103ea57600080fd5b506103f3610b8b565b6040516104009190612767565b60405180910390f35b34801561041557600080fd5b5061041e610bb5565b60405161042b91906127e9565b60405180910390f35b34801561044057600080fd5b5061045b60048036038101906104569190612373565b610c47565b005b34801561046957600080fd5b50610484600480360381019061047f91906122f8565b610c5d565b005b34801561049257600080fd5b506104ad60048036038101906104a8919061243d565b610cbf565b6040516104ba91906127e9565b60405180910390f35b3480156104cf57600080fd5b506104ea60048036038101906104e5919061226d565b610d27565b6040516104f791906127ce565b60405180910390f35b34801561050c57600080fd5b5061052760048036038101906105229190612244565b610dbb565b005b60007f780e9d63000000000000000000000000000000000000000000000000000000007bffffffffffffffffffffffffffffffffffffffffffffffffffffffff1916827bffffffffffffffffffffffffffffffffffffffffffffffffffffffff1916148061059c575061059b82610e3f565b5b9050919050565b6060600080546105b290612c10565b80601f01602080910402602001604051908101604052809291908181526020018280546105de90612c10565b801561062b5780601f106106005761010080835404028352916020019161062b565b820191906000526020600020905b81548152906001019060200180831161060e57829003601f168201915b5050505050905090565b600061064082610f21565b6004600083815260200190815260200160002060009054906101000a900473ffffffffffffffffffffffffffffffffffffffff169050919050565b600061068682610a0d565b90508073ffffffffffffffffffffffffffffffffffffffff168373ffffffffffffffffffffffffffffffffffffffff1614156106f7576040517f08c379a00000000000000000000000000000000000000000000000000000000081526004016106ee9061298b565b60405180910390fd5b8073ffffffffffffffffffffffffffffffffffffffff16610716610f6c565b73ffffffffffffffffffffffffffffffffffffffff16148061074557506107448161073f610f6c565b610d27565b5b610784576040517f08c379a000000000000000000000000000000000000000000000000000000000815260040161077b9061290b565b60405180910390fd5b61078e8383610f74565b505050565b6000600880549050905090565b6107b16107ab610f6c565b8261102d565b6107f0576040517f08c379a00000000000000000000000000000000000000000000000000000000081526004016107e7906129cb565b60405180910390fd5b6107fb8383836110c2565b505050565b600b6020528060005260406000206000915090505481565b6000610822610793565b905060005b828110156108ac5761084433828461083f9190612a9f565b611329565b600b60003373ffffffffffffffffffffffffffffffffffffffff1673ffffffffffffffffffffffffffffffffffffffff168152602001908152602001600020600081548092919061089490612c73565b919050555080806108a490612c73565b915050610827565b505050565b60006108bc83610abf565b82106108fd576040517f08c379a00000000000000000000000000000000000000000000000000000000081526004016108f49061280b565b60405180910390fd5b600660008473ffffffffffffffffffffffffffffffffffffffff1673ffffffffffffffffffffffffffffffffffffffff168152602001908152602001600020600083815260200190815260200160002054905092915050565b61097183838360405180602001604052806000815250610c5d565b505050565b6000610980610793565b82106109c1576040517f08c379a00000000000000000000000000000000000000000000000000000000081526004016109b8906129ab565b60405180910390fd5b600882815481106109fb577f4e487b7100000000000000000000000000000000000000000000000000000000600052603260045260246000fd5b90600052602060002001549050919050565b6000806002600084815260200190815260200160002060009054906101000a900473ffffffffffffffffffffffffffffffffffffffff169050600073ffffffffffffffffffffffffffffffffffffffff168173ffffffffffffffffffffffffffffffffffffffff161415610ab6576040517f08c379a0000000000000000000000000000000000000000000000000000000008152600401610aad9061296b565b60405180910390fd5b80915050919050565b60008073ffffffffffffffffffffffffffffffffffffffff168273ffffffffffffffffffffffffffffffffffffffff161415610b30576040517f08c379a0000000000000000000000000000000000000000000000000000000008152600401610b27906128eb565b60405180910390fd5b600360008373ffffffffffffffffffffffffffffffffffffffff1673ffffffffffffffffffffffffffffffffffffffff168152602001908152602001600020549050919050565b610b7f611347565b610b8960006113c5565b565b6000600a60009054906101000a900473ffffffffffffffffffffffffffffffffffffffff16905090565b606060018054610bc490612c10565b80601f0160208091040260200160405190810160405280929190818152602001828054610bf090612c10565b8015610c3d5780601f10610c1257610100808354040283529160200191610c3d565b820191906000526020600020905b815481529060010190602001808311610c2057829003601f168201915b5050505050905090565b610c59610c52610f6c565b838361148b565b5050565b610c6e610c68610f6c565b8361102d565b610cad576040517f08c379a0000000000000000000000000000000000000000000000000000000008152600401610ca4906129cb565b60405180910390fd5b610cb9848484846115f8565b50505050565b6060610cca82610f21565b6000610cd4611654565b90506000815111610cf45760405180602001604052806000815250610d1f565b80610cfe8461166b565b604051602001610d0f929190612743565b6040516020818303038152906040525b915050919050565b6000600560008473ffffffffffffffffffffffffffffffffffffffff1673ffffffffffffffffffffffffffffffffffffffff16815260200190815260200160002060008373ffffffffffffffffffffffffffffffffffffffff1673ffffffffffffffffffffffffffffffffffffffff16815260200190815260200160002060009054906101000a900460ff16905092915050565b610dc3611347565b600073ffffffffffffffffffffffffffffffffffffffff168173ffffffffffffffffffffffffffffffffffffffff161415610e33576040517f08c379a0000000000000000000000000000000000000000000000000000000008152600401610e2a9061284b565b60405180910390fd5b610e3c816113c5565b50565b60007f80ac58cd000000000000000000000000000000000000000000000000000000007bffffffffffffffffffffffffffffffffffffffffffffffffffffffff1916827bffffffffffffffffffffffffffffffffffffffffffffffffffffffff19161480610f0a57507f5b5e139f000000000000000000000000000000000000000000000000000000007bffffffffffffffffffffffffffffffffffffffffffffffffffffffff1916827bffffffffffffffffffffffffffffffffffffffffffffffffffffffff1916145b80610f1a5750610f1982611818565b5b9050919050565b610f2a81611882565b610f69576040517f08c379a0000000000000000000000000000000000000000000000000000000008152600401610f609061296b565b60405180910390fd5b50565b600033905090565b816004600083815260200190815260200160002060006101000a81548173ffffffffffffffffffffffffffffffffffffffff021916908373ffffffffffffffffffffffffffffffffffffffff160217905550808273ffffffffffffffffffffffffffffffffffffffff16610fe783610a0d565b73ffffffffffffffffffffffffffffffffffffffff167f8c5be1e5ebec7d5bd14f71427d1e84f3dd0314c0f7b2291e5b200ac8c7c3b92560405160405180910390a45050565b60008061103983610a0d565b90508073ffffffffffffffffffffffffffffffffffffffff168473ffffffffffffffffffffffffffffffffffffffff16148061107b575061107a8185610d27565b5b806110b957508373ffffffffffffffffffffffffffffffffffffffff166110a184610635565b73ffffffffffffffffffffffffffffffffffffffff16145b91505092915050565b8273ffffffffffffffffffffffffffffffffffffffff166110e282610a0d565b73ffffffffffffffffffffffffffffffffffffffff1614611138576040517f08c379a000000000000000000000000000000000000000000000000000000000815260040161112f9061286b565b60405180910390fd5b600073ffffffffffffffffffffffffffffffffffffffff168273ffffffffffffffffffffffffffffffffffffffff1614156111a8576040517f08c379a000000000000000000000000000000000000000000000000000000000815260040161119f906128ab565b60405180910390fd5b6111b38383836118ee565b6111be600082610f74565b6001600360008573ffffffffffffffffffffffffffffffffffffffff1673ffffffffffffffffffffffffffffffffffffffff168152602001908152602001600020600082825461120e9190612b26565b925050819055506001600360008473ffffffffffffffffffffffffffffffffffffffff1673ffffffffffffffffffffffffffffffffffffffff16815260200190815260200160002060008282546112659190612a9f565b92505081905550816002600083815260200190815260200160002060006101000a81548173ffffffffffffffffffffffffffffffffffffffff021916908373ffffffffffffffffffffffffffffffffffffffff160217905550808273ffffffffffffffffffffffffffffffffffffffff168473ffffffffffffffffffffffffffffffffffffffff167fddf252ad1be2c89b69c2b068fc378daa952ba7f163c4a11628f55a4df523b3ef60405160405180910390a4611324838383611a02565b505050565b611343828260405180602001604052806000815250611a07565b5050565b61134f610f6c565b73ffffffffffffffffffffffffffffffffffffffff1661136d610b8b565b73ffffffffffffffffffffffffffffffffffffffff16146113c3576040517f08c379a00000000000000000000000000000000000000000000000000000000081526004016113ba9061294b565b60405180910390fd5b565b6000600a60009054906101000a900473ffffffffffffffffffffffffffffffffffffffff16905081600a60006101000a81548173ffffffffffffffffffffffffffffffffffffffff021916908373ffffffffffffffffffffffffffffffffffffffff1602179055508173ffffffffffffffffffffffffffffffffffffffff168173ffffffffffffffffffffffffffffffffffffffff167f8be0079c531659141344cd1fd0a4f28419497f9722a3daafe3b4186f6b6457e060405160405180910390a35050565b8173ffffffffffffffffffffffffffffffffffffffff168373ffffffffffffffffffffffffffffffffffffffff1614156114fa576040517f08c379a00000000000000000000000000000000000000000000000000000000081526004016114f1906128cb565b60405180910390fd5b80600560008573ffffffffffffffffffffffffffffffffffffffff1673ffffffffffffffffffffffffffffffffffffffff16815260200190815260200160002060008473ffffffffffffffffffffffffffffffffffffffff1673ffffffffffffffffffffffffffffffffffffffff16815260200190815260200160002060006101000a81548160ff0219169083151502179055508173ffffffffffffffffffffffffffffffffffffffff168373ffffffffffffffffffffffffffffffffffffffff167f17307eab39ab6107e8899845ad3d59bd9653f200f220920489ca2b5937696c31836040516115eb91906127ce565b60405180910390a3505050565b6116038484846110c2565b61160f84848484611a62565b61164e576040517f08c379a00000000000000000000000000000000000000000000000000000000081526004016116459061282b565b60405180910390fd5b50505050565b606060405180602001604052806000815250905090565b606060008214156116b3576040518060400160405280600181526020017f30000000000000000000000000000000000000000000000000000000000000008152509050611813565b600082905060005b600082146116e55780806116ce90612c73565b915050600a826116de9190612af5565b91506116bb565b60008167ffffffffffffffff811115611727577f4e487b7100000000000000000000000000000000000000000000000000000000600052604160045260246000fd5b6040519080825280601f01601f1916602001820160405280156117595781602001600182028036833780820191505090505b5090505b6000851461180c576001826117729190612b26565b9150600a856117819190612cbc565b603061178d9190612a9f565b60f81b8183815181106117c9577f4e487b7100000000000000000000000000000000000000000000000000000000600052603260045260246000fd5b60200101907effffffffffffffffffffffffffffffffffffffffffffffffffffffffffffff1916908160001a905350600a856118059190612af5565b945061175d565b8093505050505b919050565b60007f01ffc9a7000000000000000000000000000000000000000000000000000000007bffffffffffffffffffffffffffffffffffffffffffffffffffffffff1916827bffffffffffffffffffffffffffffffffffffffffffffffffffffffff1916149050919050565b60008073ffffffffffffffffffffffffffffffffffffffff166002600084815260200190815260200160002060009054906101000a900473ffffffffffffffffffffffffffffffffffffffff1673ffffffffffffffffffffffffffffffffffffffff1614159050919050565b6118f9838383611bf9565b600073ffffffffffffffffffffffffffffffffffffffff168373ffffffffffffffffffffffffffffffffffffffff16141561193c5761193781611bfe565b61197b565b8173ffffffffffffffffffffffffffffffffffffffff168373ffffffffffffffffffffffffffffffffffffffff161461197a576119798382611c47565b5b5b600073ffffffffffffffffffffffffffffffffffffffff168273ffffffffffffffffffffffffffffffffffffffff1614156119be576119b981611db4565b6119fd565b8273ffffffffffffffffffffffffffffffffffffffff168273ffffffffffffffffffffffffffffffffffffffff16146119fc576119fb8282611ef7565b5b5b505050565b505050565b611a118383611f76565b611a1e6000848484611a62565b611a5d576040517f08c379a0000000000000000000000000000000000000000000000000000000008152600401611a549061282b565b60405180910390fd5b505050565b6000611a838473ffffffffffffffffffffffffffffffffffffffff16612150565b15611bec578373ffffffffffffffffffffffffffffffffffffffff1663150b7a02611aac610f6c565b8786866040518563ffffffff1660e01b8152600401611ace9493929190612782565b602060405180830381600087803b158015611ae857600080fd5b505af1925050508015611b1957506040513d601f19601f82011682018060405250810190611b169190612414565b60015b611b9c573d8060008114611b49576040519150601f19603f3d011682016040523d82523d6000602084013e611b4e565b606091505b50600081511415611b94576040517f08c379a0000000000000000000000000000000000000000000000000000000008152600401611b8b9061282b565b60405180910390fd5b805181602001fd5b63150b7a0260e01b7bffffffffffffffffffffffffffffffffffffffffffffffffffffffff1916817bffffffffffffffffffffffffffffffffffffffffffffffffffffffff191614915050611bf1565b600190505b949350505050565b505050565b6008805490506009600083815260200190815260200160002081905550600881908060018154018082558091505060019003906000526020600020016000909190919091505550565b60006001611c5484610abf565b611c5e9190612b26565b9050600060076000848152602001908152602001600020549050818114611d43576000600660008673ffffffffffffffffffffffffffffffffffffffff1673ffffffffffffffffffffffffffffffffffffffff168152602001908152602001600020600084815260200190815260200160002054905080600660008773ffffffffffffffffffffffffffffffffffffffff1673ffffffffffffffffffffffffffffffffffffffff168152602001908152602001600020600084815260200190815260200160002081905550816007600083815260200190815260200160002081905550505b6007600084815260200190815260200160002060009055600660008573ffffffffffffffffffffffffffffffffffffffff1673ffffffffffffffffffffffffffffffffffffffff16815260200190815260200160002060008381526020019081526020016000206000905550505050565b60006001600880549050611dc89190612b26565b9050600060096000848152602001908152602001600020549050600060088381548110611e1e577f4e487b7100000000000000000000000000000000000000000000000000000000600052603260045260246000fd5b906000526020600020015490508060088381548110611e66577f4e487b7100000000000000000000000000000000000000000000000000000000600052603260045260246000fd5b906000526020600020018190555081600960008381526020019081526020016000208190555060096000858152602001908152602001600020600090556008805480611edb577f4e487b7100000000000000000000000000000000000000000000000000000000600052603160045260246000fd5b6001900381819060005260206000200160009055905550505050565b6000611f0283610abf565b905081600660008573ffffffffffffffffffffffffffffffffffffffff1673ffffffffffffffffffffffffffffffffffffffff168152602001908152602001600020600083815260200190815260200160002081905550806007600084815260200190815260200160002081905550505050565b600073ffffffffffffffffffffffffffffffffffffffff168273ffffffffffffffffffffffffffffffffffffffff161415611fe6576040517f08c379a0000000000000000000000000000000000000000000000000000000008152600401611fdd9061292b565b60405180910390fd5b611fef81611882565b1561202f576040517f08c379a00000000000000000000000000000000000000000000000000000000081526004016120269061288b565b60405180910390fd5b61203b600083836118ee565b6001600360008473ffffffffffffffffffffffffffffffffffffffff1673ffffffffffffffffffffffffffffffffffffffff168152602001908152602001600020600082825461208b9190612a9f565b92505081905550816002600083815260200190815260200160002060006101000a81548173ffffffffffffffffffffffffffffffffffffffff021916908373ffffffffffffffffffffffffffffffffffffffff160217905550808273ffffffffffffffffffffffffffffffffffffffff16600073ffffffffffffffffffffffffffffffffffffffff167fddf252ad1be2c89b69c2b068fc378daa952ba7f163c4a11628f55a4df523b3ef60405160405180910390a461214c60008383611a02565b5050565b6000808273ffffffffffffffffffffffffffffffffffffffff163b119050919050565b600061218661218184612a2b565b612a06565b90508281526020810184848401111561219e57600080fd5b6121a9848285612bce565b509392505050565b6000813590506121c08161319d565b92915050565b6000813590506121d5816131b4565b92915050565b6000813590506121ea816131cb565b92915050565b6000815190506121ff816131cb565b92915050565b600082601f83011261221657600080fd5b8135612226848260208601612173565b91505092915050565b60008135905061223e816131e2565b92915050565b60006020828403121561225657600080fd5b6000612264848285016121b1565b91505092915050565b6000806040838503121561228057600080fd5b600061228e858286016121b1565b925050602061229f858286016121b1565b9150509250929050565b6000806000606084860312156122be57600080fd5b60006122cc868287016121b1565b93505060206122dd868287016121b1565b92505060406122ee8682870161222f565b9150509250925092565b6000806000806080858703121561230e57600080fd5b600061231c878288016121b1565b945050602061232d878288016121b1565b935050604061233e8782880161222f565b925050606085013567ffffffffffffffff81111561235b57600080fd5b61236787828801612205565b91505092959194509250565b6000806040838503121561238657600080fd5b6000612394858286016121b1565b92505060206123a5858286016121c6565b9150509250929050565b600080604083850312156123c257600080fd5b60006123d0858286016121b1565b92505060206123e18582860161222f565b9150509250929050565b6000602082840312156123fd57600080fd5b600061240b848285016121db565b91505092915050565b60006020828403121561242657600080fd5b6000612434848285016121f0565b91505092915050565b60006020828403121561244f57600080fd5b600061245d8482850161222f565b91505092915050565b61246f81612b5a565b82525050565b61247e81612b6c565b82525050565b600061248f82612a5c565b6124998185612a72565b93506124a9818560208601612bdd565b6124b281612da9565b840191505092915050565b60006124c882612a67565b6124d28185612a83565b93506124e2818560208601612bdd565b6124eb81612da9565b840191505092915050565b600061250182612a67565b61250b8185612a94565b935061251b818560208601612bdd565b80840191505092915050565b6000612534602b83612a83565b915061253f82612dba565b604082019050919050565b6000612557603283612a83565b915061256282612e09565b604082019050919050565b600061257a602683612a83565b915061258582612e58565b604082019050919050565b600061259d602583612a83565b91506125a882612ea7565b604082019050919050565b60006125c0601c83612a83565b91506125cb82612ef6565b602082019050919050565b60006125e3602483612a83565b91506125ee82612f1f565b604082019050919050565b6000612606601983612a83565b915061261182612f6e565b602082019050919050565b6000612629602983612a83565b915061263482612f97565b604082019050919050565b600061264c603e83612a83565b915061265782612fe6565b604082019050919050565b600061266f602083612a83565b915061267a82613035565b602082019050919050565b6000612692602083612a83565b915061269d8261305e565b602082019050919050565b60006126b5601883612a83565b91506126c082613087565b602082019050919050565b60006126d8602183612a83565b91506126e3826130b0565b604082019050919050565b60006126fb602c83612a83565b9150612706826130ff565b604082019050919050565b600061271e602e83612a83565b91506127298261314e565b604082019050919050565b61273d81612bc4565b82525050565b600061274f82856124f6565b915061275b82846124f6565b91508190509392505050565b600060208201905061277c6000830184612466565b92915050565b60006080820190506127976000830187612466565b6127a46020830186612466565b6127b16040830185612734565b81810360608301526127c38184612484565b905095945050505050565b60006020820190506127e36000830184612475565b92915050565b6000602082019050818103600083015261280381846124bd565b905092915050565b6000602082019050818103600083015261282481612527565b9050919050565b600060208201905081810360008301526128448161254a565b9050919050565b600060208201905081810360008301526128648161256d565b9050919050565b6000602082019050818103600083015261288481612590565b9050919050565b600060208201905081810360008301526128a4816125b3565b9050919050565b600060208201905081810360008301526128c4816125d6565b9050919050565b600060208201905081810360008301526128e4816125f9565b9050919050565b600060208201905081810360008301526129048161261c565b9050919050565b600060208201905081810360008301526129248161263f565b9050919050565b6000602082019050818103600083015261294481612662565b9050919050565b6000602082019050818103600083015261296481612685565b9050919050565b60006020820190508181036000830152612984816126a8565b9050919050565b600060208201905081810360008301526129a4816126cb565b9050919050565b600060208201905081810360008301526129c4816126ee565b9050919050565b600060208201905081810360008301526129e481612711565b9050919050565b6000602082019050612a006000830184612734565b92915050565b6000612a10612a21565b9050612a1c8282612c42565b919050565b6000604051905090565b600067ffffffffffffffff821115612a4657612a45612d7a565b5b612a4f82612da9565b9050602081019050919050565b600081519050919050565b600081519050919050565b600082825260208201905092915050565b600082825260208201905092915050565b600081905092915050565b6000612aaa82612bc4565b9150612ab583612bc4565b9250827fffffffffffffffffffffffffffffffffffffffffffffffffffffffffffffffff03821115612aea57612ae9612ced565b5b828201905092915050565b6000612b0082612bc4565b9150612b0b83612bc4565b925082612b1b57612b1a612d1c565b5b828204905092915050565b6000612b3182612bc4565b9150612b3c83612bc4565b925082821015612b4f57612b4e612ced565b5b828203905092915050565b6000612b6582612ba4565b9050919050565b60008115159050919050565b60007fffffffff0000000000000000000000000000000000000000000000000000000082169050919050565b600073ffffffffffffffffffffffffffffffffffffffff82169050919050565b6000819050919050565b82818337600083830152505050565b60005b83811015612bfb578082015181840152602081019050612be0565b83811115612c0a576000848401525b50505050565b60006002820490506001821680612c2857607f821691505b60208210811415612c3c57612c3b612d4b565b5b50919050565b612c4b82612da9565b810181811067ffffffffffffffff82111715612c6a57612c69612d7a565b5b80604052505050565b6000612c7e82612bc4565b91507fffffffffffffffffffffffffffffffffffffffffffffffffffffffffffffffff821415612cb157612cb0612ced565b5b600182019050919050565b6000612cc782612bc4565b9150612cd283612bc4565b925082612ce257612ce1612d1c565b5b828206905092915050565b7f4e487b7100000000000000000000000000000000000000000000000000000000600052601160045260246000fd5b7f4e487b7100000000000000000000000000000000000000000000000000000000600052601260045260246000fd5b7f4e487b7100000000000000000000000000000000000000000000000000000000600052602260045260246000fd5b7f4e487b7100000000000000000000000000000000000000000000000000000000600052604160045260246000fd5b6000601f19601f8301169050919050565b7f455243373231456e756d657261626c653a206f776e657220696e646578206f7560008201527f74206f6620626f756e6473000000000000000000000000000000000000000000602082015250565b7f4552433732313a207472616e7366657220746f206e6f6e20455243373231526560008201527f63656976657220696d706c656d656e7465720000000000000000000000000000602082015250565b7f4f776e61626c653a206e6577206f776e657220697320746865207a65726f206160008201527f6464726573730000000000000000000000000000000000000000000000000000602082015250565b7f4552433732313a207472616e736665722066726f6d20696e636f72726563742060008201527f6f776e6572000000000000000000000000000000000000000000000000000000602082015250565b7f4552433732313a20746f6b656e20616c7265616479206d696e74656400000000600082015250565b7f4552433732313a207472616e7366657220746f20746865207a65726f2061646460008201527f7265737300000000000000000000000000000000000000000000000000000000602082015250565b7f4552433732313a20617070726f766520746f2063616c6c657200000000000000600082015250565b7f4552433732313a2061646472657373207a65726f206973206e6f74206120766160008201527f6c6964206f776e65720000000000000000000000000000000000000000000000602082015250565b7f4552433732313a20617070726f76652063616c6c6572206973206e6f7420746f60008201527f6b656e206f776e6572206e6f7220617070726f76656420666f7220616c6c0000602082015250565b7f4552433732313a206d696e7420746f20746865207a65726f2061646472657373600082015250565b7f4f776e61626c653a2063616c6c6572206973206e6f7420746865206f776e6572600082015250565b7f4552433732313a20696e76616c696420746f6b656e2049440000000000000000600082015250565b7f4552433732313a20617070726f76616c20746f2063757272656e74206f776e6560008201527f7200000000000000000000000000000000000000000000000000000000000000602082015250565b7f455243373231456e756d657261626c653a20676c6f62616c20696e646578206f60008201527f7574206f6620626f756e64730000000000000000000000000000000000000000602082015250565b7f4552433732313a2063616c6c6572206973206e6f7420746f6b656e206f776e6560008201527f72206e6f7220617070726f766564000000000000000000000000000000000000602082015250565b6131a681612b5a565b81146131b157600080fd5b50565b6131bd81612b6c565b81146131c857600080fd5b50565b6131d481612b78565b81146131df57600080fd5b50565b6131eb81612bc4565b81146131f657600080fd5b5056fea2646970667358221220f4968003484e2854db4fd3c78543abec3eb67eb711d396a88823d8b280a5ac1664736f6c63430008040033",
  "linkReferences": {},
  "deployedLinkReferences": {}
}